{
  "_format": "hh-sol-artifact-1",
  "contractName": "AliveFixedSong",
  "sourceName": "contracts/NewContracts/Songs/AliveFixedSong.sol",
  "abi": [
    {
      "inputs": [],
      "name": "ApprovalCallerNotOwnerNorApproved",
      "type": "error"
    },
    {
      "inputs": [],
      "name": "ApprovalQueryForNonexistentToken",
      "type": "error"
    },
    {
      "inputs": [],
      "name": "ApproveToCaller",
      "type": "error"
    },
    {
      "inputs": [],
      "name": "BalanceQueryForZeroAddress",
      "type": "error"
    },
    {
      "inputs": [],
      "name": "MintERC2309QuantityExceedsLimit",
      "type": "error"
    },
    {
      "inputs": [],
      "name": "MintToZeroAddress",
      "type": "error"
    },
    {
      "inputs": [],
      "name": "MintZeroQuantity",
      "type": "error"
    },
    {
      "inputs": [],
      "name": "OwnerQueryForNonexistentToken",
      "type": "error"
    },
    {
      "inputs": [],
      "name": "OwnershipNotInitializedForExtraData",
      "type": "error"
    },
    {
      "inputs": [],
      "name": "TransferCallerNotOwnerNorApproved",
      "type": "error"
    },
    {
      "inputs": [],
      "name": "TransferFromIncorrectOwner",
      "type": "error"
    },
    {
      "inputs": [],
      "name": "TransferToNonERC721ReceiverImplementer",
      "type": "error"
    },
    {
      "inputs": [],
      "name": "TransferToZeroAddress",
      "type": "error"
    },
    {
      "inputs": [],
      "name": "URIQueryForNonexistentToken",
      "type": "error"
    },
    {
      "anonymous": false,
      "inputs": [
        {
          "indexed": true,
          "internalType": "address",
          "name": "owner",
          "type": "address"
        },
        {
          "indexed": true,
          "internalType": "address",
          "name": "approved",
          "type": "address"
        },
        {
          "indexed": true,
          "internalType": "uint256",
          "name": "tokenId",
          "type": "uint256"
        }
      ],
      "name": "Approval",
      "type": "event"
    },
    {
      "anonymous": false,
      "inputs": [
        {
          "indexed": true,
          "internalType": "address",
          "name": "owner",
          "type": "address"
        },
        {
          "indexed": true,
          "internalType": "address",
          "name": "operator",
          "type": "address"
        },
        {
          "indexed": false,
          "internalType": "bool",
          "name": "approved",
          "type": "bool"
        }
      ],
      "name": "ApprovalForAll",
      "type": "event"
    },
    {
      "anonymous": false,
      "inputs": [
        {
          "indexed": true,
          "internalType": "uint256",
          "name": "fromTokenId",
          "type": "uint256"
        },
        {
          "indexed": false,
          "internalType": "uint256",
          "name": "toTokenId",
          "type": "uint256"
        },
        {
          "indexed": true,
          "internalType": "address",
          "name": "from",
          "type": "address"
        },
        {
          "indexed": true,
          "internalType": "address",
          "name": "to",
          "type": "address"
        }
      ],
      "name": "ConsecutiveTransfer",
      "type": "event"
    },
    {
      "anonymous": false,
      "inputs": [
        {
          "indexed": false,
          "internalType": "address",
          "name": "account",
          "type": "address"
        }
      ],
      "name": "Paused",
      "type": "event"
    },
    {
      "anonymous": false,
      "inputs": [
        {
          "indexed": true,
          "internalType": "bytes32",
          "name": "role",
          "type": "bytes32"
        },
        {
          "indexed": true,
          "internalType": "bytes32",
          "name": "previousAdminRole",
          "type": "bytes32"
        },
        {
          "indexed": true,
          "internalType": "bytes32",
          "name": "newAdminRole",
          "type": "bytes32"
        }
      ],
      "name": "RoleAdminChanged",
      "type": "event"
    },
    {
      "anonymous": false,
      "inputs": [
        {
          "indexed": true,
          "internalType": "bytes32",
          "name": "role",
          "type": "bytes32"
        },
        {
          "indexed": true,
          "internalType": "address",
          "name": "account",
          "type": "address"
        },
        {
          "indexed": true,
          "internalType": "address",
          "name": "sender",
          "type": "address"
        }
      ],
      "name": "RoleGranted",
      "type": "event"
    },
    {
      "anonymous": false,
      "inputs": [
        {
          "indexed": true,
          "internalType": "bytes32",
          "name": "role",
          "type": "bytes32"
        },
        {
          "indexed": true,
          "internalType": "address",
          "name": "account",
          "type": "address"
        },
        {
          "indexed": true,
          "internalType": "address",
          "name": "sender",
          "type": "address"
        }
      ],
      "name": "RoleRevoked",
      "type": "event"
    },
    {
      "anonymous": false,
      "inputs": [
        {
          "indexed": true,
          "internalType": "address",
          "name": "from",
          "type": "address"
        },
        {
          "indexed": true,
          "internalType": "address",
          "name": "to",
          "type": "address"
        },
        {
          "indexed": true,
          "internalType": "uint256",
          "name": "tokenId",
          "type": "uint256"
        }
      ],
      "name": "Transfer",
      "type": "event"
    },
    {
      "anonymous": false,
      "inputs": [
        {
          "indexed": false,
          "internalType": "address",
          "name": "account",
          "type": "address"
        }
      ],
      "name": "Unpaused",
      "type": "event"
    },
    {
      "anonymous": false,
      "inputs": [
        {
          "indexed": false,
          "internalType": "address",
          "name": "minter",
          "type": "address"
        },
        {
          "indexed": false,
          "internalType": "uint256",
          "name": "quantity",
          "type": "uint256"
        },
        {
          "indexed": false,
          "internalType": "uint256",
          "name": "totalSupply",
          "type": "uint256"
        },
        {
          "indexed": false,
          "internalType": "address",
          "name": "songAddress",
          "type": "address"
        }
      ],
      "name": "songMinted",
      "type": "event"
    },
    {
      "inputs": [],
      "name": "DEFAULT_ADMIN_ROLE",
      "outputs": [
        {
          "internalType": "bytes32",
          "name": "",
          "type": "bytes32"
        }
      ],
      "stateMutability": "view",
      "type": "function"
    },
    {
      "inputs": [],
      "name": "aliveRegistry",
      "outputs": [
        {
          "internalType": "address",
          "name": "",
          "type": "address"
        }
      ],
      "stateMutability": "view",
      "type": "function"
    },
    {
      "inputs": [
        {
          "internalType": "uint256",
          "name": "",
          "type": "uint256"
        }
      ],
      "name": "allDrops",
      "outputs": [
        {
          "internalType": "uint256",
          "name": "dropID",
          "type": "uint256"
        },
        {
          "internalType": "uint256",
          "name": "dropTotalAmount",
          "type": "uint256"
        },
        {
          "internalType": "uint256",
          "name": "dropPerNFT",
          "type": "uint256"
        },
        {
          "internalType": "uint256",
          "name": "totalClaimed",
          "type": "uint256"
        },
        {
          "internalType": "uint256",
          "name": "dropNumber",
          "type": "uint256"
        }
      ],
      "stateMutability": "view",
      "type": "function"
    },
    {
      "inputs": [
        {
          "internalType": "address",
          "name": "to",
          "type": "address"
        },
        {
          "internalType": "uint256",
          "name": "tokenId",
          "type": "uint256"
        }
      ],
      "name": "approve",
      "outputs": [],
      "stateMutability": "nonpayable",
      "type": "function"
    },
    {
      "inputs": [
        {
          "internalType": "address",
          "name": "owner",
          "type": "address"
        }
      ],
      "name": "balanceOf",
      "outputs": [
        {
          "internalType": "uint256",
          "name": "",
          "type": "uint256"
        }
      ],
      "stateMutability": "view",
      "type": "function"
    },
    {
      "inputs": [
        {
          "internalType": "address[]",
          "name": "_arrayOfReceivers",
          "type": "address[]"
        },
        {
          "internalType": "uint256",
          "name": "_amountForEach",
          "type": "uint256"
        }
      ],
      "name": "batchAirDrop",
      "outputs": [],
      "stateMutability": "nonpayable",
      "type": "function"
    },
    {
      "inputs": [
        {
          "internalType": "uint256",
          "name": "tokenId",
          "type": "uint256"
        }
      ],
      "name": "burn",
      "outputs": [],
      "stateMutability": "nonpayable",
      "type": "function"
    },
    {
      "inputs": [
        {
          "internalType": "uint256",
          "name": "tokenID",
          "type": "uint256"
        }
      ],
      "name": "claimAllDrop",
      "outputs": [
        {
          "internalType": "bool",
          "name": "success",
          "type": "bool"
        }
      ],
      "stateMutability": "nonpayable",
      "type": "function"
    },
    {
      "inputs": [
        {
          "internalType": "uint256",
          "name": "dropId",
          "type": "uint256"
        },
        {
          "internalType": "uint256",
          "name": "tokenID",
          "type": "uint256"
        }
      ],
      "name": "claimDrop",
      "outputs": [
        {
          "internalType": "bool",
          "name": "",
          "type": "bool"
        }
      ],
      "stateMutability": "nonpayable",
      "type": "function"
    },
    {
      "inputs": [
        {
          "internalType": "uint256",
          "name": "",
          "type": "uint256"
        }
      ],
      "name": "claimed",
      "outputs": [
        {
          "internalType": "uint256",
          "name": "",
          "type": "uint256"
        }
      ],
      "stateMutability": "view",
      "type": "function"
    },
    {
      "inputs": [],
      "name": "contractURI",
      "outputs": [
        {
          "internalType": "string",
          "name": "",
          "type": "string"
        }
      ],
      "stateMutability": "view",
      "type": "function"
    },
    {
      "inputs": [
        {
          "internalType": "uint256",
          "name": "tokenId",
          "type": "uint256"
        }
      ],
      "name": "getApproved",
      "outputs": [
        {
          "internalType": "address",
          "name": "",
          "type": "address"
        }
      ],
      "stateMutability": "view",
      "type": "function"
    },
    {
      "inputs": [],
      "name": "getContractURI",
      "outputs": [
        {
          "internalType": "string",
          "name": "",
          "type": "string"
        }
      ],
      "stateMutability": "view",
      "type": "function"
    },
    {
      "inputs": [
        {
          "internalType": "uint256",
          "name": "_quantity",
          "type": "uint256"
        }
      ],
      "name": "getPrice",
      "outputs": [
        {
          "internalType": "uint256",
          "name": "price",
          "type": "uint256"
        }
      ],
      "stateMutability": "view",
      "type": "function"
    },
    {
      "inputs": [
        {
          "internalType": "bytes32",
          "name": "role",
          "type": "bytes32"
        }
      ],
      "name": "getRoleAdmin",
      "outputs": [
        {
          "internalType": "bytes32",
          "name": "",
          "type": "bytes32"
        }
      ],
      "stateMutability": "view",
      "type": "function"
    },
    {
      "inputs": [
        {
          "internalType": "bytes32",
          "name": "role",
          "type": "bytes32"
        },
        {
          "internalType": "address",
          "name": "account",
          "type": "address"
        }
      ],
      "name": "grantRole",
      "outputs": [],
      "stateMutability": "nonpayable",
      "type": "function"
    },
    {
      "inputs": [
        {
          "internalType": "bytes32",
          "name": "role",
          "type": "bytes32"
        },
        {
          "internalType": "address",
          "name": "account",
          "type": "address"
        }
      ],
      "name": "hasRole",
      "outputs": [
        {
          "internalType": "bool",
          "name": "",
          "type": "bool"
        }
      ],
      "stateMutability": "view",
      "type": "function"
    },
    {
      "inputs": [],
      "name": "initialPrice",
      "outputs": [
        {
          "internalType": "uint256",
          "name": "",
          "type": "uint256"
        }
      ],
      "stateMutability": "view",
      "type": "function"
    },
    {
      "inputs": [
        {
          "internalType": "address",
          "name": "_aliveRegistry",
          "type": "address"
        },
        {
          "internalType": "address",
          "name": "_royaltyReceiverSecondary",
          "type": "address"
        },
        {
          "internalType": "uint96",
          "name": "_royaltyFeesInBips",
          "type": "uint96"
        },
        {
          "internalType": "address",
          "name": "_royaltyReceiverSplit",
          "type": "address"
        },
        {
          "internalType": "uint96",
          "name": "_offchainRoyaltyPercentageInBips",
          "type": "uint96"
        },
        {
          "internalType": "string",
          "name": "_songURI",
          "type": "string"
        },
        {
          "internalType": "string",
          "name": "_contractURI",
          "type": "string"
        },
        {
          "internalType": "address",
          "name": "_artist",
          "type": "address"
        },
        {
          "internalType": "uint256",
          "name": "_songId",
          "type": "uint256"
        },
        {
          "internalType": "uint256[2]",
          "name": "_songInfos",
          "type": "uint256[2]"
        }
      ],
      "name": "initialize",
      "outputs": [],
      "stateMutability": "nonpayable",
      "type": "function"
    },
    {
      "inputs": [
        {
          "internalType": "address",
          "name": "owner",
          "type": "address"
        },
        {
          "internalType": "address",
          "name": "operator",
          "type": "address"
        }
      ],
      "name": "isApprovedForAll",
      "outputs": [
        {
          "internalType": "bool",
          "name": "",
          "type": "bool"
        }
      ],
      "stateMutability": "view",
      "type": "function"
    },
    {
      "inputs": [],
      "name": "maxMintAmount",
      "outputs": [
        {
          "internalType": "uint256",
          "name": "",
          "type": "uint256"
        }
      ],
      "stateMutability": "view",
      "type": "function"
    },
    {
      "inputs": [
        {
          "internalType": "address",
          "name": "_to",
          "type": "address"
        },
        {
          "internalType": "uint256",
          "name": "_quantity",
          "type": "uint256"
        }
      ],
      "name": "mint",
      "outputs": [],
      "stateMutability": "payable",
      "type": "function"
    },
    {
      "inputs": [],
      "name": "mintRoyaltyReceiver",
      "outputs": [
        {
          "internalType": "address",
          "name": "",
          "type": "address"
        }
      ],
      "stateMutability": "view",
      "type": "function"
    },
    {
      "inputs": [],
      "name": "name",
      "outputs": [
        {
          "internalType": "string",
          "name": "",
          "type": "string"
        }
      ],
      "stateMutability": "view",
      "type": "function"
    },
    {
      "inputs": [],
      "name": "newDrop",
      "outputs": [],
      "stateMutability": "payable",
      "type": "function"
    },
    {
      "inputs": [],
      "name": "offchainRoyaltyPercentageInBips",
      "outputs": [
        {
          "internalType": "uint256",
          "name": "",
          "type": "uint256"
        }
      ],
      "stateMutability": "view",
      "type": "function"
    },
    {
      "inputs": [
        {
          "internalType": "uint256",
          "name": "tokenId",
          "type": "uint256"
        }
      ],
      "name": "ownerOf",
      "outputs": [
        {
          "internalType": "address",
          "name": "",
          "type": "address"
        }
      ],
      "stateMutability": "view",
      "type": "function"
    },
    {
      "inputs": [],
      "name": "pause",
      "outputs": [],
      "stateMutability": "nonpayable",
      "type": "function"
    },
    {
      "inputs": [],
      "name": "paused",
      "outputs": [
        {
          "internalType": "bool",
          "name": "",
          "type": "bool"
        }
      ],
      "stateMutability": "view",
      "type": "function"
    },
    {
      "inputs": [
        {
          "internalType": "bytes32",
          "name": "role",
          "type": "bytes32"
        },
        {
          "internalType": "address",
          "name": "account",
          "type": "address"
        }
      ],
      "name": "renounceRole",
      "outputs": [],
      "stateMutability": "nonpayable",
      "type": "function"
    },
    {
      "inputs": [
        {
          "internalType": "bytes32",
          "name": "role",
          "type": "bytes32"
        },
        {
          "internalType": "address",
          "name": "account",
          "type": "address"
        }
      ],
      "name": "revokeRole",
      "outputs": [],
      "stateMutability": "nonpayable",
      "type": "function"
    },
    {
      "inputs": [
        {
          "internalType": "uint256",
          "name": "_tokenId",
          "type": "uint256"
        },
        {
          "internalType": "uint256",
          "name": "_salePrice",
          "type": "uint256"
        }
      ],
      "name": "royaltyInfo",
      "outputs": [
        {
          "internalType": "address",
          "name": "",
          "type": "address"
        },
        {
          "internalType": "uint256",
          "name": "",
          "type": "uint256"
        }
      ],
      "stateMutability": "view",
      "type": "function"
    },
    {
      "inputs": [
        {
          "internalType": "address",
          "name": "from",
          "type": "address"
        },
        {
          "internalType": "address",
          "name": "to",
          "type": "address"
        },
        {
          "internalType": "uint256",
          "name": "tokenId",
          "type": "uint256"
        }
      ],
      "name": "safeTransferFrom",
      "outputs": [],
      "stateMutability": "nonpayable",
      "type": "function"
    },
    {
      "inputs": [
        {
          "internalType": "address",
          "name": "from",
          "type": "address"
        },
        {
          "internalType": "address",
          "name": "to",
          "type": "address"
        },
        {
          "internalType": "uint256",
          "name": "tokenId",
          "type": "uint256"
        },
        {
          "internalType": "bytes",
          "name": "_data",
          "type": "bytes"
        }
      ],
      "name": "safeTransferFrom",
      "outputs": [],
      "stateMutability": "nonpayable",
      "type": "function"
    },
    {
      "inputs": [
        {
          "internalType": "address",
          "name": "operator",
          "type": "address"
        },
        {
          "internalType": "bool",
          "name": "approved",
          "type": "bool"
        }
      ],
      "name": "setApprovalForAll",
      "outputs": [],
      "stateMutability": "nonpayable",
      "type": "function"
    },
    {
      "inputs": [
        {
          "internalType": "string",
          "name": "_uri",
          "type": "string"
        }
      ],
      "name": "setContractURI",
      "outputs": [],
      "stateMutability": "nonpayable",
      "type": "function"
    },
    {
      "inputs": [
        {
          "internalType": "uint256",
          "name": "_tokenId",
          "type": "uint256"
        },
        {
          "internalType": "address payable",
          "name": "_royaltiesReceipientAddress",
          "type": "address"
        },
        {
          "internalType": "uint96",
          "name": "_percentageBasisPoints",
          "type": "uint96"
        }
      ],
      "name": "setRoyalties",
      "outputs": [],
      "stateMutability": "nonpayable",
      "type": "function"
    },
    {
      "inputs": [
        {
          "internalType": "string",
          "name": "_uri",
          "type": "string"
        }
      ],
      "name": "setURI",
      "outputs": [],
      "stateMutability": "nonpayable",
      "type": "function"
    },
    {
      "inputs": [],
      "name": "songId",
      "outputs": [
        {
          "internalType": "uint256",
          "name": "",
          "type": "uint256"
        }
      ],
      "stateMutability": "view",
      "type": "function"
    },
    {
      "inputs": [],
      "name": "songType",
      "outputs": [
        {
          "internalType": "uint8",
          "name": "",
          "type": "uint8"
        }
      ],
      "stateMutability": "view",
      "type": "function"
    },
    {
      "inputs": [
        {
          "internalType": "bytes4",
          "name": "interfaceId",
          "type": "bytes4"
        }
      ],
      "name": "supportsInterface",
      "outputs": [
        {
          "internalType": "bool",
          "name": "",
          "type": "bool"
        }
      ],
      "stateMutability": "view",
      "type": "function"
    },
    {
      "inputs": [],
      "name": "symbol",
      "outputs": [
        {
          "internalType": "string",
          "name": "",
          "type": "string"
        }
      ],
      "stateMutability": "view",
      "type": "function"
    },
    {
      "inputs": [
        {
          "internalType": "uint256",
          "name": "tokenId",
          "type": "uint256"
        }
      ],
      "name": "tokenURI",
      "outputs": [
        {
          "internalType": "string",
          "name": "",
          "type": "string"
        }
      ],
      "stateMutability": "view",
      "type": "function"
    },
    {
      "inputs": [],
      "name": "totalSupply",
      "outputs": [
        {
          "internalType": "uint256",
          "name": "",
          "type": "uint256"
        }
      ],
      "stateMutability": "view",
      "type": "function"
    },
    {
      "inputs": [
        {
          "internalType": "address",
          "name": "from",
          "type": "address"
        },
        {
          "internalType": "address",
          "name": "to",
          "type": "address"
        },
        {
          "internalType": "uint256",
          "name": "tokenId",
          "type": "uint256"
        }
      ],
      "name": "transferFrom",
      "outputs": [],
      "stateMutability": "nonpayable",
      "type": "function"
    },
    {
      "inputs": [],
      "name": "unpause",
      "outputs": [],
      "stateMutability": "nonpayable",
      "type": "function"
    }
  ],
  "bytecode": "0x608060405234801561001057600080fd5b50613d06806100206000396000f3fe60806040526004361061027d5760003560e01c806370a082311161014f578063ad5b882c116100c1578063dbe7e3bd1161007a578063dbe7e3bd146107ac578063e7572230146107da578063e8a3d485146107fa578063e985e9c51461080f578063f50c7e411461082f578063fe2233be1461083757600080fd5b8063ad5b882c146106dd578063b88d4fde146106fe578063c7c8b7fd1461071e578063c87b56dd1461074b578063cc942bad1461076b578063d547741f1461078c57600080fd5b8063942aa5ae11610113578063942aa5ae1461061457806395d89b41146106345780639d45c3f714610649578063a217fddf14610691578063a22cb465146106a6578063a54d02ff146106c657600080fd5b806370a08231146105885780638456cb59146105a85780639129f7cf146105bd57806391d14854146105d4578063938e3d7b146105f457600080fd5b8063288b6a47116101f35780633f4ba83a116101ac5780633f4ba83a146104e857806340c10f19146104fd57806342842e0e1461051057806342966c68146105305780635c975abb146105505780636352211e1461056857600080fd5b8063288b6a47146104145780632a55205a146104345780632f2ff15d1461047357806335cd83071461049357806336568abe146104b357806337929eb4146104d357600080fd5b8063143094db11610245578063143094db1461035357806318160ddd146103735780631d0806ae14610396578063239c70ae146103ad57806323b872dd146103c4578063248a9ca3146103e457600080fd5b806301ffc9a71461028257806302fe5305146102b757806306fdde03146102d9578063081812fc146102fb578063095ea7b314610333575b600080fd5b34801561028e57600080fd5b506102a261029d3660046137ca565b610857565b60405190151581526020015b60405180910390f35b3480156102c357600080fd5b506102d76102d2366004613802565b610877565b005b3480156102e557600080fd5b506102ee610964565b6040516102ae91906139c6565b34801561030757600080fd5b5061031b61031636600461378e565b6109ff565b6040516001600160a01b0390911681526020016102ae565b34801561033f57600080fd5b506102d761034e36600461368d565b610a4c565b34801561035f57600080fd5b506102d761036e36600461384d565b610afa565b34801561037f57600080fd5b50610388610bd6565b6040519081526020016102ae565b3480156103a257600080fd5b506103886101375481565b3480156103b957600080fd5b506103886101325481565b3480156103d057600080fd5b506102d76103df3660046134c1565b610bf6565b3480156103f057600080fd5b506103886103ff36600461378e565b60009081526097602052604090206001015490565b34801561042057600080fd5b506102a261042f36600461388a565b610de5565b34801561044057600080fd5b5061045461044f36600461388a565b611134565b604080516001600160a01b0390931683526020830191909152016102ae565b34801561047f57600080fd5b506102d761048e3660046137a6565b6111e0565b34801561049f57600080fd5b506102d76104ae36600461357e565b611206565b3480156104bf57600080fd5b506102d76104ce3660046137a6565b6114f8565b3480156104df57600080fd5b506102ee611572565b3480156104f457600080fd5b506102d7611582565b6102d761050b36600461368d565b611658565b34801561051c57600080fd5b506102d761052b3660046134c1565b611b04565b34801561053c57600080fd5b506102d761054b36600461378e565b611b1f565b34801561055c57600080fd5b5060c95460ff166102a2565b34801561057457600080fd5b5061031b61058336600461378e565b611b2d565b34801561059457600080fd5b506103886105a3366004613451565b611b38565b3480156105b457600080fd5b506102d7611ba1565b3480156105c957600080fd5b5061038861012f5481565b3480156105e057600080fd5b506102a26105ef3660046137a6565b611c75565b34801561060057600080fd5b506102d761060f366004613802565b611ca0565b34801561062057600080fd5b506102a261062f36600461378e565b611d3e565b34801561064057600080fd5b506102ee611fa7565b34801561065557600080fd5b5061066961066436600461378e565b611fbf565b604080519586526020860194909452928401919091526060830152608082015260a0016102ae565b34801561069d57600080fd5b50610388600081565b3480156106b257600080fd5b506102d76106c1366004613660565b612001565b3480156106d257600080fd5b506103886101355481565b3480156106e957600080fd5b5061012e5461031b906001600160a01b031681565b34801561070a57600080fd5b506102d7610719366004613501565b6120a8565b34801561072a57600080fd5b50610136546107399060ff1681565b60405160ff90911681526020016102ae565b34801561075757600080fd5b506102ee61076636600461378e565b6120f2565b34801561077757600080fd5b5061012d5461031b906001600160a01b031681565b34801561079857600080fd5b506102d76107a73660046137a6565b61216d565b3480156107b857600080fd5b506103886107c736600461378e565b6101336020526000908152604090205481565b3480156107e657600080fd5b506103886107f536600461378e565b612193565b34801561080657600080fd5b506102ee6121a4565b34801561081b57600080fd5b506102a261082a366004613489565b612233565b6102d7612270565b34801561084357600080fd5b506102d76108523660046136b8565b61253b565b6000610862826126c7565b80610871575061087182612715565b92915050565b61012d5460405163082b9f9760e11b81523360048201526001600160a01b03909116906310573f2e9060240160206040518083038186803b1580156108bb57600080fd5b505afa1580156108cf573d6000803e3d6000fd5b505050506040513d601f19601f820116820180604052508101906108f39190613772565b1515600114806109165750610916600080516020613c9183398151915233611c75565b806109275750610927600033611c75565b61094c5760405162461bcd60e51b815260040161094390613a2d565b60405180910390fd5b8051610960906101309060208401906132a5565b5050565b606061096e61274a565b600201805461097c90613bab565b80601f01602080910402602001604051908101604052809291908181526020018280546109a890613bab565b80156109f55780601f106109ca576101008083540402835291602001916109f5565b820191906000526020600020905b8154815290600101906020018083116109d857829003601f168201915b5050505050905090565b6000610a0a8261276e565b610a27576040516333d1c03960e21b815260040160405180910390fd5b610a2f61274a565b60009283526006016020525060409020546001600160a01b031690565b6000610a5782611b2d565b9050336001600160a01b03821614610a9057610a738133612233565b610a90576040516367d9dca160e11b815260040160405180910390fd5b82610a9961274a565b6000848152600691909101602052604080822080546001600160a01b0319166001600160a01b0394851617905551849286811692908516917f8c5be1e5ebec7d5bd14f71427d1e84f3dd0314c0f7b2291e5b200ac8c7c3b9259190a4505050565b61012d5460405163082b9f9760e11b81523360048201526001600160a01b03909116906310573f2e9060240160206040518083038186803b158015610b3e57600080fd5b505afa158015610b52573d6000803e3d6000fd5b505050506040513d601f19601f82011682018060405250810190610b769190613772565b151560011480610b995750610b99600080516020613c9183398151915233611c75565b80610baa5750610baa600033611c75565b610bc65760405162461bcd60e51b815260040161094390613a2d565b610bd18383836127b7565b505050565b60006001610be261274a565b60010154610bee61274a565b540303919050565b6000610c0182612882565b9050836001600160a01b0316816001600160a01b031614610c345760405162a1148160e81b815260040160405180910390fd5b600080610c4084612911565b91509150610c658187610c503390565b6001600160a01b039081169116811491141790565b610c9057610c738633612233565b610c9057604051632ce44b5f60e11b815260040160405180910390fd5b6001600160a01b038516610cb757604051633a954ecd60e21b815260040160405180910390fd5b8015610cc257600082555b610cca61274a565b6001600160a01b0387166000908152600591909101602052604090208054600019019055610cf661274a565b6001600160a01b03861660008181526005929092016020526040909120805460010190554260a01b17600160e11b17610d2d61274a565b60008681526004919091016020526040902055600160e11b8316610d9c5760018401610d5761274a565b60008281526004919091016020526040902054610d9a57610d7661274a565b548114610d9a5783610d8661274a565b600083815260049190910160205260409020555b505b83856001600160a01b0316876001600160a01b03167fddf252ad1be2c89b69c2b068fc378daa952ba7f163c4a11628f55a4df523b3ef60405160405180910390a4505050505050565b6000600260fb541415610e0a5760405162461bcd60e51b815260040161094390613a9e565b600260fb5533610e1983611b2d565b6001600160a01b031614610e6f5760405162461bcd60e51b815260206004820152601b60248201527f4f6e6c79206172746973742063616e20636c61696d2064726f702100000000006044820152606401610943565b61013454831115610eb95760405162461bcd60e51b815260206004820152601460248201527308191c9bdc1cc8191bd95cdb89dd08195e1a5cdd60621b6044820152606401610943565b610134610ec7600185613b51565b81548110610ee557634e487b7160e01b600052603260045260246000fd5b906000526020600020906005020160040154610134600185610f079190613b51565b81548110610f2557634e487b7160e01b600052603260045260246000fd5b90600052602060002090600502016003015410610f715760405162461bcd60e51b815260206004820152600a60248201526964726f7020656d70747960b01b6044820152606401610943565b600082815261013360205260409020548311610fc15760405162461bcd60e51b815260206004820152600f60248201526e185b1c9958591e4818db185a5b5959608a1b6044820152606401610943565b600082815261013360205260409020548390610fde906001613b06565b1461103d5760405162461bcd60e51b815260206004820152602960248201527f6e65656420746f20636c61696d20746865206e65617265737420756e636c61696044820152686d65642064726f707360b81b6064820152608401610943565b60008281526101336020526040812080549161105883613be6565b919050555061106682611b2d565b6001600160a01b03166108fc600a610134611082600188613b51565b815481106110a057634e487b7160e01b600052603260045260246000fd5b9060005260206000209060050201600201546110bc9190613b51565b6040518115909202916000818181858888f193505050501580156110e4573d6000803e3d6000fd5b50610134600184038154811061110a57634e487b7160e01b600052603260045260246000fd5b60009182526020909120600360059092020101805460019081019091559050600160fb5592915050565b60008281526066602090815260408083208151808301909252546001600160a01b038116808352600160a01b9091046001600160601b03169282019290925282916111a95750604080518082019091526065546001600160a01b0381168252600160a01b90046001600160601b031660208201525b6020810151600090612710906111c8906001600160601b031687613b32565b6111d29190613b1e565b915196919550909350505050565b6000828152609760205260409020600101546111fc8133612939565b610bd1838361299d565b600054610100900460ff166112215760005460ff1615611225565b303b155b6112885760405162461bcd60e51b815260206004820152602e60248201527f496e697469616c697a61626c653a20636f6e747261637420697320616c72656160448201526d191e481a5b9a5d1a585b1a5e995960921b6064820152608401610943565b600054610100900460ff161580156112aa576000805461ffff19166101011790555b600080516020613cb183398151915254610100900460ff166112df57600080516020613cb18339815191525460ff16156112e3565b303b155b6113555760405162461bcd60e51b815260206004820152603760248201527f455243373231415f5f496e697469616c697a61626c653a20636f6e747261637460448201527f20697320616c726561647920696e697469616c697a65640000000000000000006064820152608401610943565b600080516020613cb183398151915254610100900460ff1615801561139157600080516020613cb1833981519152805461ffff19166101011790555b6113d560405180604001604052806007815260200166416c697665453160c81b8152506040518060400160405280600381526020016241453160e81b815250612a23565b6113e060008661299d565b6113f8600080516020613c918339815191528661299d565b6114227f65d7a28e3265b37a6474929f336521b332c1681b933f6cb9f3376673440d862a8661299d565b61012d80546001600160a01b03808f166001600160a01b03199283161790925561012e8054928c16929091169190911790556001600160601b03881661012f5561146c8b8b612a61565b6101358490558651611486906101309060208a01906132a5565b50855161149b906101319060208901906132a5565b50610136805460ff1916600117905582516101325560208301516101375580156114d857600080516020613cb1833981519152805461ff00191690555b5080156114eb576000805461ff00191690555b5050505050505050505050565b6001600160a01b03811633146115685760405162461bcd60e51b815260206004820152602f60248201527f416363657373436f6e74726f6c3a2063616e206f6e6c792072656e6f756e636560448201526e103937b632b9903337b91039b2b63360891b6064820152608401610943565b6109608282612b1b565b6060610131805461097c90613bab565b61012d5460405163082b9f9760e11b81523360048201526001600160a01b03909116906310573f2e9060240160206040518083038186803b1580156115c657600080fd5b505afa1580156115da573d6000803e3d6000fd5b505050506040513d601f19601f820116820180604052508101906115fe9190613772565b1515600114806116215750611621600080516020613c9183398151915233611c75565b806116325750611632600033611c75565b61164e5760405162461bcd60e51b815260040161094390613a2d565b611656612b82565b565b60c95460ff161561169e5760405162461bcd60e51b815260206004820152601060248201526f14185d5cd8589b194e881c185d5cd95960821b6044820152606401610943565b600260fb5414156116c15760405162461bcd60e51b815260040161094390613a9e565b600260fb5561012d54610136546040516303f195e360e41b815260ff90911660048201526001600160a01b0390911690633f195e309060240160206040518083038186803b15801561171257600080fd5b505afa158015611726573d6000803e3d6000fd5b505050506040513d601f19601f8201168201806040525081019061174a9190613835565b81106117ad5760405162461bcd60e51b815260206004820152602c60248201527f596f752063616e206d696e7420536f6e6773206d6f7265207468616e204c696d60448201526b697420706572206d696e742160a01b6064820152608401610943565b61013254816117ba610bd6565b6117c49190613b06565b11156118125760405162461bcd60e51b815260206004820152601b60248201527f43616e2774206d696e74206d6f7265207468616e204c696d69742100000000006044820152606401610943565b600081116118625760405162461bcd60e51b815260206004820152601a60248201527f596f75206d757374206d696e74206d6f7265207468616e2030210000000000006044820152606401610943565b600061186d82612193565b9050803410156118b55760405162461bcd60e51b8152602060048201526013602482015272496e73756666696369656e742066756e64732160681b6044820152606401610943565b803411156118f557336108fc6118cb8334613b51565b6040518115909202916000818181858888f193505050501580156118f3573d6000803e3d6000fd5b505b61012d5460408051631ff5bc5760e21b815290516000926001600160a01b031691637fd6f15c916004808301926020929190829003018186803b15801561193b57600080fd5b505afa15801561194f573d6000803e3d6000fd5b505050506040513d601f19601f8201168201806040525081019061197391906138ab565b60ff169050600060646119868385613b32565b6119909190613b1e565b905061012d60009054906101000a90046001600160a01b03166001600160a01b0316630214a0216040518163ffffffff1660e01b815260040160206040518083038186803b1580156119e157600080fd5b505afa1580156119f5573d6000803e3d6000fd5b505050506040513d601f19601f82011682018060405250810190611a19919061346d565b6001600160a01b03166108fc829081150290604051600060405180830381858888f19350505050158015611a51573d6000803e3d6000fd5b5061012e546001600160a01b03166108fc611a6c8386613b51565b6040518115909202916000818181858888f19350505050158015611a94573d6000803e3d6000fd5b50611a9f8585612c15565b7f10842702ff554597b21bc4cd560b15be94776d5cdbbbd7e0404af3c5937c53b98585611aca610bd6565b604080516001600160a01b03909416845260208401929092529082015230606082015260800160405180910390a15050600160fb55505050565b610bd1838383604051806020016040528060008152506120a8565b611b2a816001612d22565b50565b600061087182612882565b60006001600160a01b038216611b61576040516323d3ad8160e21b815260040160405180910390fd5b67ffffffffffffffff611b7261274a565b6005016000846001600160a01b03166001600160a01b0316815260200190815260200160002054169050919050565b61012d5460405163082b9f9760e11b81523360048201526001600160a01b03909116906310573f2e9060240160206040518083038186803b158015611be557600080fd5b505afa158015611bf9573d6000803e3d6000fd5b505050506040513d601f19601f82011682018060405250810190611c1d9190613772565b151560011480611c405750611c40600080516020613c9183398151915233611c75565b80611c515750611c51600033611c75565b611c6d5760405162461bcd60e51b815260040161094390613a2d565b611656612e9c565b60009182526097602090815260408084206001600160a01b0393909316845291905290205460ff1690565b61012d5460405163082b9f9760e11b81523360048201526001600160a01b03909116906310573f2e9060240160206040518083038186803b158015611ce457600080fd5b505afa158015611cf8573d6000803e3d6000fd5b505050506040513d601f19601f82011682018060405250810190611d1c9190613772565b1515600114611d2a57600080fd5b8051610960906101319060208401906132a5565b6000600260fb541415611d635760405162461bcd60e51b815260040161094390613a9e565b600260fb5533611d7283611b2d565b6001600160a01b031614611dc85760405162461bcd60e51b815260206004820152601b60248201527f4f6e6c79206172746973742063616e20636c61696d2064726f702100000000006044820152606401610943565b61013454611e075760405162461bcd60e51b815260206004820152600c60248201526b1b9bc8191c9bdc1cc81e595d60a21b6044820152606401610943565b600082815261013360205260409020546101345411611e2557600080fd5b60008281526101336020526040902054805b61013454811015611f97576101348181548110611e6457634e487b7160e01b600052603260045260246000fd5b9060005260206000209060050201600401546101348281548110611e9857634e487b7160e01b600052603260045260246000fd5b90600052602060002090600502016003015410611eb457600080fd5b60008481526101336020526040902080546001019055610134805482908110611eed57634e487b7160e01b600052603260045260246000fd5b6000918252602090912060036005909202010180546001019055611f1084611b2d565b6001600160a01b03166108fc600a6101348481548110611f4057634e487b7160e01b600052603260045260246000fd5b906000526020600020906005020160020154611f5c9190613b51565b6040518115909202916000818181858888f19350505050158015611f84573d6000803e3d6000fd5b5080611f8f81613be6565b915050611e37565b506001915050600160fb55919050565b6060611fb161274a565b600301805461097c90613bab565b6101348181548110611fd057600080fd5b6000918252602090912060059091020180546001820154600283015460038401546004909401549294509092909185565b6001600160a01b03821633141561202b5760405163b06307db60e01b815260040160405180910390fd5b8061203461274a565b336000818152600792909201602090815260408084206001600160a01b03881680865290835293819020805460ff19169515159590951790945592518415158152919290917f17307eab39ab6107e8899845ad3d59bd9653f200f220920489ca2b5937696c31910160405180910390a35050565b6120b3848484610bf6565b6001600160a01b0383163b156120ec576120cf84848484612f17565b6120ec576040516368d2bf6b60e11b815260040160405180910390fd5b50505050565b60606120fd8261276e565b61211a57604051630a14c4b560e41b815260040160405180910390fd5b600061212461300f565b90508051600014156121455760405180602001604052806000815250612166565b8060405160200161215691906138f8565b6040516020818303038152906040525b9392505050565b6000828152609760205260409020600101546121898133612939565b610bd18383612b1b565b600081610137546108719190613b32565b61013180546121b290613bab565b80601f01602080910402602001604051908101604052809291908181526020018280546121de90613bab565b801561222b5780601f106122005761010080835404028352916020019161222b565b820191906000526020600020905b81548152906001019060200180831161220e57829003601f168201915b505050505081565b600061223d61274a565b6001600160a01b039384166000908152600791909101602090815260408083209490951682529290925250205460ff1690565b61012d5460405163082b9f9760e11b81523360048201526001600160a01b03909116906310573f2e9060240160206040518083038186803b1580156122b457600080fd5b505afa1580156122c8573d6000803e3d6000fd5b505050506040513d601f19601f820116820180604052508101906122ec9190613772565b15156001148061230f575061230f600080516020613c9183398151915233611c75565b806123205750612320600033611c75565b61233c5760405162461bcd60e51b815260040161094390613a2d565b670de0b6b3a764000034116123a85760405162461bcd60e51b815260206004820152602c60248201527f4d696e2064726f7020616d6f756e74206d75737420626520626967676572207460448201526b68616e20312065746865722160a01b6064820152608401610943565b60006123bb346123b6610bd6565b61301f565b610134549091506000906123d0906001613b06565b905060006040518060a0016040528083815260200134815260200184815260200160008152602001612400610bd6565b9052610134805460018101825560009190915281517fe1c588fe1269da19c317f679b04e226f5e48296f9b2c8351127eb010907c472f60059092029182015560208201517fe1c588fe1269da19c317f679b04e226f5e48296f9b2c8351127eb010907c473082015560408201517fe1c588fe1269da19c317f679b04e226f5e48296f9b2c8351127eb010907c473182015560608201517fe1c588fe1269da19c317f679b04e226f5e48296f9b2c8351127eb010907c473282015560808201517fe1c588fe1269da19c317f679b04e226f5e48296f9b2c8351127eb010907c47339091015590506124ee610bd6565b6124f89034613c01565b15610bd157336108fc612509610bd6565b6125139034613c01565b6040518115909202916000818181858888f193505050501580156120ec573d6000803e3d6000fd5b61012d5460405163082b9f9760e11b81523360048201526001600160a01b03909116906310573f2e9060240160206040518083038186803b15801561257f57600080fd5b505afa158015612593573d6000803e3d6000fd5b505050506040513d601f19601f820116820180604052508101906125b79190613772565b1515600114806125da57506125da600080516020613c9183398151915233611c75565b806125eb57506125eb600033611c75565b6126075760405162461bcd60e51b815260040161094390613a2d565b610132548183516126189190613b32565b612620610bd6565b61262a9190613b06565b11156126785760405162461bcd60e51b815260206004820152601b60248201527f63616e2774206d696e74206d6f7265207468616e20737570706c7900000000006044820152606401610943565b60005b8251811015610bd1576126b58382815181106126a757634e487b7160e01b600052603260045260246000fd5b602002602001015183612c15565b806126bf81613be6565b91505061267b565b60006301ffc9a760e01b6001600160e01b0319831614806126f857506380ac58cd60e01b6001600160e01b03198316145b806108715750506001600160e01b031916635b5e139f60e01b1490565b60006001600160e01b0319821663152a902d60e11b148061087157506301ffc9a760e01b6001600160e01b0319831614610871565b7f2569078dfb4b0305704d3008e7403993ae9601b85f7ae5e742de3de8f8011c4090565b600081600111158015612788575061278461274a565b5482105b80156108715750600160e01b61279c61274a565b60008481526004919091016020526040902054161592915050565b6127106001600160601b03821611156127e25760405162461bcd60e51b815260040161094390613a54565b6001600160a01b0382166128385760405162461bcd60e51b815260206004820152601b60248201527f455243323938313a20496e76616c696420706172616d657465727300000000006044820152606401610943565b6040805180820182526001600160a01b0393841681526001600160601b0392831660208083019182526000968752606690529190942093519051909116600160a01b029116179055565b600081806001116128f85761289561274a565b548110156128f85760006128a761274a565b600083815260049190910160205260409020549050600160e01b81166128f6575b80612166576128d561274a565b600019909201600081815260049390930160205260409092205490506128c8565b505b604051636f96cda160e11b815260040160405180910390fd5b600080600061291e61274a565b60009485526006016020525050604090912080549092909150565b6129438282611c75565b6109605761295b816001600160a01b03166014613040565b612966836020613040565b604051602001612977929190613914565b60408051601f198184030181529082905262461bcd60e51b8252610943916004016139c6565b6129a78282611c75565b6109605760008281526097602090815260408083206001600160a01b03851684529091529020805460ff191660011790556129df3390565b6001600160a01b0316816001600160a01b0316837f2f8788117e7eff1d82e926ec794901d17c78024a50270940304540a733656f0d60405160405180910390a45050565b600080516020613cb183398151915254610100900460ff16612a575760405162461bcd60e51b8152600401610943906139d9565b6109608282613222565b6127106001600160601b0382161115612a8c5760405162461bcd60e51b815260040161094390613a54565b6001600160a01b038216612ae25760405162461bcd60e51b815260206004820152601960248201527f455243323938313a20696e76616c6964207265636569766572000000000000006044820152606401610943565b604080518082019091526001600160a01b039092168083526001600160601b039091166020909201829052600160a01b90910217606555565b612b258282611c75565b156109605760008281526097602090815260408083206001600160a01b0385168085529252808320805460ff1916905551339285917ff6391f5c32d9c69d2a47ea670b442974b53935d1edc7fd64eb21e047a839171b9190a45050565b60c95460ff16612bcb5760405162461bcd60e51b815260206004820152601460248201527314185d5cd8589b194e881b9bdd081c185d5cd95960621b6044820152606401610943565b60c9805460ff191690557f5db9ee0a495bf2e6ff9c91a7834c1ba4fdd244a5e8aa4e537bd38aeae4b073aa335b6040516001600160a01b03909116815260200160405180910390a1565b6000612c1f61274a565b5490506001600160a01b038316612c4857604051622e076360e81b815260040160405180910390fd5b81612c665760405163b562e8dd60e01b815260040160405180910390fd5b680100000000000000018202612c7a61274a565b6001600160a01b038516600081815260059290920160205260409091208054929092019091554260a01b6001841460e11b1717612cb561274a565b60008381526004919091016020526040902055808281015b6040516001830192906001600160a01b038716906000907fddf252ad1be2c89b69c2b068fc378daa952ba7f163c4a11628f55a4df523b3ef908290a4808210612ccd5780612d1961274a565b5550610bd19050565b6000612d2d83612882565b905080600080612d3c86612911565b915091508415612d7c57612d51818433610c50565b612d7c57612d5f8333612233565b612d7c57604051632ce44b5f60e11b815260040160405180910390fd5b8015612d8757600082555b6fffffffffffffffffffffffffffffffff612da061274a565b6001600160a01b038516600081815260059290920160205260409091208054929092019091554260a01b17600360e01b17612dd961274a565b60008881526004919091016020526040902055600160e11b8416612e485760018601612e0361274a565b60008281526004919091016020526040902054612e4657612e2261274a565b548114612e465784612e3261274a565b600083815260049190910160205260409020555b505b60405186906000906001600160a01b038616907fddf252ad1be2c89b69c2b068fc378daa952ba7f163c4a11628f55a4df523b3ef908390a4612e8861274a565b600190810180549091019055505050505050565b60c95460ff1615612ee25760405162461bcd60e51b815260206004820152601060248201526f14185d5cd8589b194e881c185d5cd95960821b6044820152606401610943565b60c9805460ff191660011790557f62e78cea01bee320cd4e420270b5ea74000d11b0c9f74754ebdbfc544b05a258612bf83390565b604051630a85bd0160e11b81526000906001600160a01b0385169063150b7a0290612f4c903390899088908890600401613989565b602060405180830381600087803b158015612f6657600080fd5b505af1925050508015612f96575060408051601f3d908101601f19168201909252612f93918101906137e6565b60015b612ff1573d808015612fc4576040519150601f19603f3d011682016040523d82523d6000602084013e612fc9565b606091505b508051612fe9576040516368d2bf6b60e11b815260040160405180910390fd5b805181602001fd5b6001600160e01b031916630a85bd0160e11b1490505b949350505050565b6060610130805461097c90613bab565b60008161302c8185613c01565b6130369085613b51565b6121669190613b1e565b6060600061304f836002613b32565b61305a906002613b06565b67ffffffffffffffff81111561308057634e487b7160e01b600052604160045260246000fd5b6040519080825280601f01601f1916602001820160405280156130aa576020820181803683370190505b509050600360fc1b816000815181106130d357634e487b7160e01b600052603260045260246000fd5b60200101906001600160f81b031916908160001a905350600f60fb1b8160018151811061311057634e487b7160e01b600052603260045260246000fd5b60200101906001600160f81b031916908160001a9053506000613134846002613b32565b61313f906001613b06565b90505b60018111156131d3576f181899199a1a9b1b9c1cb0b131b232b360811b85600f166010811061318157634e487b7160e01b600052603260045260246000fd5b1a60f81b8282815181106131a557634e487b7160e01b600052603260045260246000fd5b60200101906001600160f81b031916908160001a90535060049490941c936131cc81613b94565b9050613142565b5083156121665760405162461bcd60e51b815260206004820181905260248201527f537472696e67733a20686578206c656e67746820696e73756666696369656e746044820152606401610943565b600080516020613cb183398151915254610100900460ff166132565760405162461bcd60e51b8152600401610943906139d9565b8161325f61274a565b60020190805190602001906132759291906132a5565b508061327f61274a565b60030190805190602001906132959291906132a5565b5060016132a061274a565b555050565b8280546132b190613bab565b90600052602060002090601f0160209004810192826132d35760008555613319565b82601f106132ec57805160ff1916838001178555613319565b82800160010185558215613319579182015b828111156133195782518255916020019190600101906132fe565b50613325929150613329565b5090565b5b80821115613325576000815560010161332a565b600067ffffffffffffffff83111561335857613358613c41565b61336b601f8401601f1916602001613ad5565b905082815283838301111561337f57600080fd5b828260208301376000602084830101529392505050565b80356133a181613c57565b919050565b600082601f8301126133b6578081fd5b6040516040810181811067ffffffffffffffff821117156133d9576133d9613c41565b80604052508083856040860111156133ef578384fd5b835b60028110156134105781358352602092830192909101906001016133f1565b509195945050505050565b600082601f83011261342b578081fd5b6121668383356020850161333e565b80356001600160601b03811681146133a157600080fd5b600060208284031215613462578081fd5b813561216681613c57565b60006020828403121561347e578081fd5b815161216681613c57565b6000806040838503121561349b578081fd5b82356134a681613c57565b915060208301356134b681613c57565b809150509250929050565b6000806000606084860312156134d5578081fd5b83356134e081613c57565b925060208401356134f081613c57565b929592945050506040919091013590565b60008060008060808587031215613516578081fd5b843561352181613c57565b9350602085013561353181613c57565b925060408501359150606085013567ffffffffffffffff811115613553578182fd5b8501601f81018713613563578182fd5b6135728782356020840161333e565b91505092959194509250565b6000806000806000806000806000806101608b8d03121561359d578788fd5b6135a68b613396565b99506135b460208c01613396565b98506135c260408c0161343a565b97506135d060608c01613396565b96506135de60808c0161343a565b955060a08b013567ffffffffffffffff808211156135fa578687fd5b6136068e838f0161341b565b965060c08d013591508082111561361b578586fd5b506136288d828e0161341b565b94505061363760e08c01613396565b92506101008b0135915061364f8c6101208d016133a6565b90509295989b9194979a5092959850565b60008060408385031215613672578182fd5b823561367d81613c57565b915060208301356134b681613c6c565b6000806040838503121561369f578182fd5b82356136aa81613c57565b946020939093013593505050565b600080604083850312156136ca578182fd5b823567ffffffffffffffff808211156136e1578384fd5b818501915085601f8301126136f4578384fd5b813560208282111561370857613708613c41565b8160051b9250613719818401613ad5565b8281528181019085830185870184018b1015613733578889fd5b8896505b84871015613761578035955061374c86613c57565b85835260019690960195918301918301613737565b509997909101359750505050505050565b600060208284031215613783578081fd5b815161216681613c6c565b60006020828403121561379f578081fd5b5035919050565b600080604083850312156137b8578182fd5b8235915060208301356134b681613c57565b6000602082840312156137db578081fd5b813561216681613c7a565b6000602082840312156137f7578081fd5b815161216681613c7a565b600060208284031215613813578081fd5b813567ffffffffffffffff811115613829578182fd5b6130078482850161341b565b600060208284031215613846578081fd5b5051919050565b600080600060608486031215613861578081fd5b83359250602084013561387381613c57565b91506138816040850161343a565b90509250925092565b6000806040838503121561389c578182fd5b50508035926020909101359150565b6000602082840312156138bc578081fd5b815160ff81168114612166578182fd5b600081518084526138e4816020860160208601613b68565b601f01601f19169290920160200192915050565b6000825161390a818460208701613b68565b9190910192915050565b7f416363657373436f6e74726f6c3a206163636f756e742000000000000000000081526000835161394c816017850160208801613b68565b7001034b99036b4b9b9b4b733903937b6329607d1b601791840191820152835161397d816028840160208801613b68565b01602801949350505050565b6001600160a01b03858116825284166020820152604081018390526080606082018190526000906139bc908301846138cc565b9695505050505050565b60208152600061216660208301846138cc565b60208082526034908201527f455243373231415f5f496e697469616c697a61626c653a20636f6e7472616374604082015273206973206e6f7420696e697469616c697a696e6760601b606082015260800190565b6020808252600d908201526c37b7363c9033b7bb32b93737b960991b604082015260600190565b6020808252602a908201527f455243323938313a20726f79616c7479206665652077696c6c206578636565646040820152692073616c65507269636560b01b606082015260800190565b6020808252601f908201527f5265656e7472616e637947756172643a207265656e7472616e742063616c6c00604082015260600190565b604051601f8201601f1916810167ffffffffffffffff81118282101715613afe57613afe613c41565b604052919050565b60008219821115613b1957613b19613c15565b500190565b600082613b2d57613b2d613c2b565b500490565b6000816000190483118215151615613b4c57613b4c613c15565b500290565b600082821015613b6357613b63613c15565b500390565b60005b83811015613b83578181015183820152602001613b6b565b838111156120ec5750506000910152565b600081613ba357613ba3613c15565b506000190190565b600181811c90821680613bbf57607f821691505b60208210811415613be057634e487b7160e01b600052602260045260246000fd5b50919050565b6000600019821415613bfa57613bfa613c15565b5060010190565b600082613c1057613c10613c2b565b500690565b634e487b7160e01b600052601160045260246000fd5b634e487b7160e01b600052601260045260246000fd5b634e487b7160e01b600052604160045260246000fd5b6001600160a01b0381168114611b2a57600080fd5b8015158114611b2a57600080fd5b6001600160e01b031981168114611b2a57600080fdfe71840dc4906352362b0cdaf79870196c8e42acafade72d5d5a6d59291253ceb1ee151c8401928dc223602bb187aff91b9a56c7cae5476ef1b3287b085a16c85fa2646970667358221220e372f8489230c8b597c05644e320fff2ea0af4b2fc40982640f965a38ad3dd9864736f6c63430008040033",
  "linkReferences": {},
  "deployedLinkReferences": {}
}